:020000040800F2
:1000000000000120050300080B030008110300088D
:1000100033030008390300085B03000800000000F8
:100020000000000000000000000000007D03000848
:100030008303000800000000890300088F03000804
:10004000AD030008AD030008AD030008AD030008D0
:10005000AD030008AD030008B1060008AD030008B9
:10006000AD03000801070008AD030008AD03000858
:10007000AD030008AD030008AD030008AD030008A0
:10008000AD030008AD030008AD0300080000000048
:10009000000000000000000000000000AD030008A8
:1000A000AD030008AD030008AD030008AD03000870
:1000B000AD030008AD030008AD030008AD03000860
:1000C000AD030008AD030008AD030008AD03000850
:1000D000AD030008AD030008AD03000800000000F8
:1000E000AD030008AD030008AD03000800000000E8
:1000F000000000000000000000000000AD03000848
:1001000000000000AD030008AD030008AD030008C7
:1001100000000000000000000000000000000000DF
:10012000AD030008AD030008AD030008AD030008EF
:10013000AD03000800000000000000000000000007
:10014000000000000000000000000000AD030008F7
:10015000AD030008AD030008AD030008AD030008BF
:10016000AD030008AD03000800000000000000001F
:10017000000000000000000000000000000000007F
:1001800000000000AD0300080000000000000000B7
:10019000AD03000880B596B000AF00F037F94F4BC3
:1001A0007B6524E07B6D1A1D7A651B683B647B6D63
:1001B0001A1D7A651B68FB637B6D1A1D7A651B68C7
:1001C000BB633B6C7B63FB6B3B63BB6BFB623B6B5F
:1001D000BB6207E07A6B131D7B63BB6A191DB962B2
:1001E00012681A60FA6ABB6A9A42F3D800BF7B6D44
:1001F0003B4A9342D6D33B4B3B651AE03B6D1A1DFD
:100200003A651B68BB643B6D1A1D3A651B687B64CD
:10021000BB6C7B627B6C3B627B6AFB6104E0FB69CD
:100220001A1DFA6100221A603A6AFB699A42F6D8EE
:1002300000BF3B6D2C4A9342E0D300F0F5F83A1D25
:1002400007F108031146184600F0CEF8274A284B5C
:10025000D31A9B103B610023FB6007E0244AFB6834
:1002600052F823309847FB680133FB603A69FB681A
:100270009A42F3DC1F4A204BD31A9B103B610023A8
:10028000FB6007E01C4AFB6852F823309847FB6884
:100290000133FB603A69FB689A42F3DC00BFBB683C
:1002A0007A681146184600F053FAF864134A144B62
:1002B000D31A9B10BB61BB697B6108E07B69013B82
:1002C0000F4A52F8233098477B69013B7B617B6979
:1002D000002BF3DC00BFF86C00F080F8B4030008DA
:1002E000CC030008CC030008DC030008DC03000892
:1002F000DC030008DC030008DC030008DC03000862
:10030000DC0300082548004700BF80B400AFFEE7CB
:100310001EF0040F0CBFEFF30880EFF30980714665
:100320001F4A104700BF80B483B000AF78603960C7
:10033000FEE780B400AFFEE71EF0040F0CBFEFF342
:100340000880EFF309807146164A104700BF80B459
:1003500083B000AF78603960FEE71EF0040F0CBF79
:10036000EFF30880EFF3098071460F4A104700BF92
:1003700080B483B000AF78603960FEE780B400AF2E
:10038000FEE780B400AFFEE780B400AFFEE780B4C4
:1003900000AF00BFBD4680BC70470000950100085B
:1003A000270300084F0300087103000880B400AF62
:0203B000FEE766
:1003B400640D00080000002020000020640D0008E7
:1003C4000000001000000010200000202400002085
:0803D400000000100000001001
:1003DC0080B582B000AF786000F03CF880B483B098
:1003EC0000AF786039607B6801221A603B68034A71
:1003FC001A6000BF0C37BD4680BC7047000000205F
:10040C0080B500AF00F02AF8024B034A9A6000BF97
:10041C0080BD00BF00ED00E00000000880B500AF1B
:10042C0000F028F800BF80BD80B400AFBFF34F8F41
:10043C0000BF064BDB6803F4E0620449044B134332
:10044C00CB60BFF34F8F00BF00BFFDE700ED00E0B6
:10045C000400FA0580B500AFFFF7E6FF80B400AFEB
:10046C00034B4FF000629A6000BFBD4680BC7047E2
:10047C0000ED00E080B487B000AF00233B610023A7
:10048C007B610223FB600023BB6002237B60344B47
:10049C009B6803F00C033B613B69082B11D03B6953
:1004AC00082B44D83B69002B03D03B69042B04D0A8
:1004BC003DE02C4B2C4A1A603DE02A4B2B4A1A602B
:1004CC0039E0274B5B689B0D03F00103BB60244BA9
:1004DC005B6803F03F037B60BB68002B0CD0234AA6
:1004EC007B68B2FBF3F31E4A52689209C2F308020E
:1004FC0002FB03F37B610BE01B4A7B68B2FBF3F35B
:10050C00174A52689209C2F3080202FB03F37B619B
:10051C00134B5B681B0C03F0030301335B00FB60A4
:10052C007A69FB68B2FBF3F30E4A136003E00D4BE0
:10053C000D4A1A6000BF0A4B9B681B0903F00F039E
:10054C000B4AD35C3B61074B1A683B6922FA03F3F5
:10055C00044A136000BF1C37BD4680BC704700BF07
:10056C0000380240080000200024F40000127A0039
:10057C00540D000880B582B000AF78607B68012212
:10058C001A7001220021422000F044FA01220521B8
:10059C00422000F03FFA00F055F8002205214220DD
:1005AC0000F038FA00BF0837BD4680BD80B582B078
:1005BC0000AF78607B6800221A7000220021422074
:1005CC0000F028FA00220521422000F023FA00F066
:1005DC0039F800BF0837BD4680BD80B582B000AF8A
:1005EC0078607B6800221A7001220521422000F0FD
:1005FC0011FA00BF0837BD4680BD80B582B000AF90
:10060C0078607B6801221A7000220021422000F0E1
:10061C0001FA00220A21422000F0FCF901220521F6
:10062C00422000F0F7F900BF00F076F90346002BEA
:10063C00FAD000220521422000F0ECF900BF083767
:10064C00BD4680BD80B582B000AF0023FB7120E0B9
:10065C0001220A21422000F0DDF94FF4FA7000F07B
:10066C0043F900BF00F058F90346002BFAD00022E2
:10067C000A21422000F0CEF94FF4FA7000F034F960
:10068C0000BF00F049F90346002BFAD0FB79013387
:10069C00FB71FB79012BDBD900BF00BF0837BD46CE
:1006AC0080BD000080B500AF032000F01FFB0F4B96
:1006BC001B78002B07D10E4B1B78012B03D10B4859
:1006CC00FFF758FF0AE0094B1B78012B06D1084BAA
:1006DC001B78012B02D10548FFF768FF002000F0C2
:1006EC001DFB032000F0ECFA00BF80BD21000020B0
:1006FC002200002080B500AF002000F0F7FA0F4B6D
:10070C001B78012B07D10E4B1B78012B03D10C4806
:10071C00FFF763FF0AE0094B1B78012B06D1084B4E
:10072C001B78002B02D10648FFF767FF032000F06F
:10073C00F5FA002000F0C4FA00BF80BD21000020B3
:10074C002200002080B500AF00F04EF8002000F031
:10075C0059F8012000F056F86E2000F053F800F024
:10076C00A5F8002301220021422000F0F1F800231B
:10077C0001220521422000F0EBF8002301220A217E
:10078C00422000F0E5F8022300220021412000F075
:10079C00DFF8022300220321412000F0D9F8412286
:1007AC000021002000F062F941220021032000F01A
:1007BC005DF900220021422000F02CF900220521D5
:1007CC00422000F027F900220A21422000F022F9F1
:1007DC00034B00221A70034B01221A70FEE700BF74
:1007EC00210000202200002080B400AF044B1B68C5
:1007FC00034A43F00103136000BFBD4680BC704741
:10080C000038024080B485B000AF0346FB71FB7921
:10081C005B09FB73FB7903F01F03BB73FB7B032B9F
:10082C0036D801A252F823F0450800085B080008EE
:10083C007108000887080008184B1B68BA7B012157
:10084C0001FA02F21146154A0B43136021E0144BD6
:10085C001B68BA7B012101FA02F21146104A0B43C4
:10086C00136016E00F4B1B68BA7B012101FA02F2F0
:10087C0011460C4A0B4313600BE00B4B1B68BA7B05
:10088C00012101FA02F21146074A0B43136000E002
:10089C0000BF00BF1437BD4680BC704730380240E3
:1008AC0034380240403802404438024080B483B0AF
:1008BC0000AF0C4B1B6C0B4A43F0010313644FF05D
:1008CC0080437B607B6843F67F629A627B685B69DE
:1008DC0043F001027B685A6100BF0C37BD4680BCF7
:1008EC00704700BF0038024080B485B000AF78601C
:1008FC004FF08043FB60FB6800225A62FB687A6809
:10090C00DA62FB681B6843F00102FB681A6000BFE7
:10091C001437BD4680BC704780B483B000AF4FF035
:10092C0080437B607B685A6A7B68DB6A013B9A4236
:10093C0007D17B681B6923F001027B681A610123D4
:10094C0000E0002318460C37BD4680BC7047000001
:10095C0090B486B000AF0446084611461A462346AA
:10096C00FB710346BB710B467B7113463B71FB79E4
:10097C00413BFB75FB7D264A52F823303B613B79AA
:10098C0003F00103FB733B795B08BB733B691B688A
:10099C00BA795200032101FA02F2D2431A403B69A0
:1009AC001A603B691B687979BA79520001FA02F234
:1009BC001A433B691A603B695B68BA79012101FAF9
:1009CC0002F2D2431A403B695A603B695B68F97B7F
:1009DC00BA7901FA02F21A433B695A603B69DB6847
:1009EC00BA795200032101FA02F2D2431A403B6950
:1009FC00DA603B69DB68B97BBA79520001FA02F222
:100A0C001A433B69DA6000BF1837BD4690BC70478B
:100A1C000C00002080B485B000AF0346FB710B4680
:100A2C00BB7113467B71FB79413BFB73FB7B0E4A1D
:100A3C0052F82330BB60BB685B69BA79012101FABB
:100A4C0002F2D2431A40BB685A61BB685B69797980
:100A5C00BA7901FA02F21A43BB685A6100BF143723
:100A6C00BD4680BC704700BF0C00002080B485B030
:100A7C0000AF0346FB710B46BB7113467B71894B70
:100A8C001B68FA79012101FA02F21146854A0B43DF
:100A9C001360844BDB68FA79012101FA02F2D2432C
:100AAC001146804A0B40D3607E4B9B68FA7901213A
:100ABC0001FA02F2D24311467A4A0B409360BB7999
:100ACC00022B1BD0022B2EDC002B0CD0012B2AD19D
:100ADC00744B9B68FA79012101FA02F21146714AB2
:100AEC000B43936020E06F4BDB68FA79012101FA2C
:100AFC0002F211466B4A0B43D36015E0694B9B68BD
:100B0C00FA79012101FA02F21146664A0B4393600D
:100B1C00644BDB68FA79012101FA02F21146614A51
:100B2C000B43D36000E000BFFB79042B0BD85E4B6A
:100B3C001B68FA790632012101FA02F211465A4A6F
:100B4C000B43136018E0FB79042B09D9FB79092BB3
:100B5C0006D8554B1B68544A43F4000313600BE052
:100B6C00FB79092B08D9FB790F2B05D84F4B1B6848
:100B7C004E4A43F480731360FB79032B02D84C4B21
:100B8C00FB6019E0FB79032B05D9FB79072B02D805
:100B9C00484BFB6010E0FB79072B05D9FB790B2B3D
:100BAC0002D8454BFB6007E0FB790B2B04D9FB7992
:100BBC000F2B01D8414BFB607B79413B032B6BD84E
:100BCC0001A252F823F000BFE50B0008090C000845
:100BDC003D0C0008710C0008FB681B68FA7902F0E8
:100BEC0003029200152101FA02F2D2431A40FB686B
:100BFC001A60FB681A68FB681A604EE0FB681B6899
:100C0C00FA7902F003029200152101FA02F2D243A2
:100C1C001A40FB681A60FB681B68FA7902F0030241
:100C2C009200012101FA02F21A43FB681A6034E0C7
:100C3C00FB681B68FA7902F003029200152101FA95
:100C4C0002F2D2431A40FB681A60FB681B68FA79FF
:100C5C0002F003029200022101FA02F21A43FB682D
:100C6C001A601AE0FB681B68FA7902F00302920022
:100C7C00152101FA02F2D2431A40FB681A60FB6894
:100C8C001B68FA7902F003029200032101FA02F2C6
:100C9C001A43FB681A6000E000BF00BF1437BD4662
:100CAC0080BC7047003C014000E100E004E100E042
:100CBC00083801400C380140103801401838014008
:100CCC0080B483B000AF0346FB71074B1B68FA7905
:100CDC00012101FA02F21146034A0B43136000BFD3
:100CEC000C37BD4680BC7047003C014080B483B0DB
:100CFC0000AF0346FB71084B1B68FA79012101FA1E
:100D0C0002F2D2431146044A0B40136000BF0C3769
:100D1C00BD4680BC704700BF003C014080B483B02E
:100D2C0000AF0346FB71074B5B69FA79012101FAAD
:100D3C0002F21146034A0B43536100BF0C37BD4608
:100D4C0080BC7047003C0140000000000000000027
:080D5C00010203040607080967
:100D640020000020000000000024F40000000240E5
:100D74000004024000080240000C0240001002403F
:040000050800019559
:00000001FF
