:020000040800F2
:1000000000000120050300080B030008110300088D
:1000100033030008390300085B03000800000000F8
:100020000000000000000000000000007D03000848
:100030008303000800000000890300088F03000804
:10004000AD030008AD030008AD030008AD030008D0
:10005000AD030008AD030008AD030008AD030008C0
:10006000AD030008AD030008AD030008AD030008B0
:10007000AD030008AD030008AD030008AD030008A0
:10008000AD030008AD030008AD0300080000000048
:10009000000000000000000000000000AD030008A8
:1000A000AD030008AD030008AD030008AD03000870
:1000B000AD030008AD030008AD030008AD03000860
:1000C000AD030008AD030008AD030008AD03000850
:1000D000AD030008AD030008AD03000800000000F8
:1000E000AD030008AD030008AD03000800000000E8
:1000F000000000000000000000000000AD03000848
:1001000000000000AD030008AD030008AD030008C7
:1001100000000000000000000000000000000000DF
:10012000AD030008AD030008AD030008AD030008EF
:10013000AD03000800000000000000000000000007
:10014000000000000000000000000000AD030008F7
:10015000AD030008AD030008AD030008AD030008BF
:10016000AD030008AD03000800000000000000001F
:10017000000000000000000000000000000000007F
:1001800000000000AD0300080000000000000000B7
:10019000AD03000880B596B000AF00F037F94F4BC3
:1001A0007B6524E07B6D1A1D7A651B683B647B6D63
:1001B0001A1D7A651B68FB637B6D1A1D7A651B68C7
:1001C000BB633B6C7B63FB6B3B63BB6BFB623B6B5F
:1001D000BB6207E07A6B131D7B63BB6A191DB962B2
:1001E00012681A60FA6ABB6A9A42F3D800BF7B6D44
:1001F0003B4A9342D6D33B4B3B651AE03B6D1A1DFD
:100200003A651B68BB643B6D1A1D3A651B687B64CD
:10021000BB6C7B627B6C3B627B6AFB6104E0FB69CD
:100220001A1DFA6100221A603A6AFB699A42F6D8EE
:1002300000BF3B6D2C4A9342E0D300F0F5F83A1D25
:1002400007F108031146184600F0CEF8274A284B5C
:10025000D31A9B103B610023FB6007E0244AFB6834
:1002600052F823309847FB680133FB603A69FB681A
:100270009A42F3DC1F4A204BD31A9B103B610023A8
:10028000FB6007E01C4AFB6852F823309847FB6884
:100290000133FB603A69FB689A42F3DC00BFBB683C
:1002A0007A681146184600F06BF9F864134A144B4B
:1002B000D31A9B10BB61BB697B6108E07B69013B82
:1002C0000F4A52F8233098477B69013B7B617B6979
:1002D000002BF3DC00BFF86C00F080F8B4030008DA
:1002E000CC030008CC030008DC030008DC03000892
:1002F000DC030008DC030008DC030008DC03000862
:10030000DC0300082548004700BF80B400AFFEE7CB
:100310001EF0040F0CBFEFF30880EFF30980714665
:100320001F4A104700BF80B483B000AF78603960C7
:10033000FEE780B400AFFEE71EF0040F0CBFEFF342
:100340000880EFF309807146164A104700BF80B459
:1003500083B000AF78603960FEE71EF0040F0CBF79
:10036000EFF30880EFF3098071460F4A104700BF92
:1003700080B483B000AF78603960FEE780B400AF2E
:10038000FEE780B400AFFEE780B400AFFEE780B4C4
:1003900000AF00BFBD4680BC70470000950100085B
:1003A000270300084F0300087103000880B400AF62
:0203B000FEE766
:1003B400540B0008000000200C000020540B00081F
:1003C40000000010000000100C00002018000020A5
:0803D400000000100000001001
:1003DC0080B582B000AF786000F03CF880B483B098
:1003EC0000AF786039607B6801221A603B68034A71
:1003FC001A6000BF0C37BD4680BC7047000000205F
:10040C0080B500AF00F02AF8024B034A9A6000BF97
:10041C0080BD00BF00ED00E00000000880B500AF1B
:10042C0000F028F800BF80BD80B400AFBFF34F8F41
:10043C0000BF064BDB6803F4E0620449044B134332
:10044C00CB60BFF34F8F00BF00BFFDE700ED00E0B6
:10045C000400FA0580B500AFFFF7E6FF80B400AFEB
:10046C00034B4FF000629A6000BFBD4680BC7047E2
:10047C0000ED00E080B487B000AF00233B610023A7
:10048C007B610223FB600023BB6002237B60344B47
:10049C009B6803F00C033B613B69082B11D03B6953
:1004AC00082B44D83B69002B03D03B69042B04D0A8
:1004BC003DE02C4B2C4A1A603DE02A4B2B4A1A602B
:1004CC0039E0274B5B689B0D03F00103BB60244BA9
:1004DC005B6803F03F037B60BB68002B0CD0234AA6
:1004EC007B68B2FBF3F31E4A52689209C2F308020E
:1004FC0002FB03F37B610BE01B4A7B68B2FBF3F35B
:10050C00174A52689209C2F3080202FB03F37B619B
:10051C00134B5B681B0C03F0030301335B00FB60A4
:10052C007A69FB68B2FBF3F30E4A136003E00D4BE0
:10053C000D4A1A6000BF0A4B9B681B0903F00F039E
:10054C000B4AD35C3B61074B1A683B6922FA03F3F5
:10055C00044A136000BF1C37BD4680BC704700BF07
:10056C0000380240080000200024F40000127A0039
:10057C00440B000880B500AF00F040F8002000F0FC
:10058C004BF8012000F048F8002301220021422002
:10059C0000F096F8002301220521422000F090F88B
:1005AC00002301220A21422000F08AF801230022B4
:1005BC000021412000F084F8012300220321412076
:1005CC0000F07EF800220021422000F0E7F9002222
:1005DC000521422000F0E2F900220A21422000F01D
:1005EC00DDF9044B1B6800221A70034B1B680122B7
:1005FC001A70FEE7100000201400002080B400AF39
:10060C00044B1B68034A43F00103136000BFBD4653
:10061C0080BC70470038024080B485B000AF034600
:10062C00FB71FB795B09FB73FB7903F01F03BB7355
:10063C00FB7B032B36D801A252F823F05906000895
:10064C006F060008850600089B060008184B1B68FF
:10065C00BA7B012101FA02F21146154A0B431360D1
:10066C0021E0144B1B68BA7B012101FA02F21146FE
:10067C00104A0B43136016E00F4B1B68BA7B012129
:10068C0001FA02F211460C4A0B4313600BE00B4BC0
:10069C001B68BA7B012101FA02F21146074A0B438F
:1006AC00136000E000BF00BF1437BD4680BC70472C
:1006BC00303802403438024040380240443802405E
:1006CC0090B482B000AF0446084611461A46234641
:1006DC00FB710346BB710B467B7113463B71FB7977
:1006EC00413B032B00F23C8101A252F823F000BFE6
:1006FC000D070008A50700083D080008D5080008EC
:10070C009A4B1B68BA795200032101FA02F2D243C8
:10071C001146964A0B401360944B1B687979BA7951
:10072C00520001FA02F21146904A0B4313607B7996
:10073C00002B02D0012B18D013E18D4B1B68BA791A
:10074C005200032101FA02F2D2431146884A0B40AF
:10075C001360874B1B683979BA79520001FA02F29F
:10076C001146834A0B43136015E0824B1B68BA7920
:10077C00012101FA02F2D24311467E4A0B4013606A
:10078C007C4B1B683979BA7901FA02F21146794A25
:10079C000B43136000BFE4E0774B1B68BA7952003F
:1007AC00032101FA02F2D2431146734A0B40136043
:1007BC00714B1B687979BA79520001FA02F2114631
:1007CC006D4A0B4313607B79002B02D0012B18D0A0
:1007DC00C7E06A4B1B68BA795200032101FA02F296
:1007EC00D2431146654A0B401360644B1B68397940
:1007FC00BA79520001FA02F21146604A0B431360B7
:10080C0015E05F4B1B68BA79012101FA02F2D24361
:10081C0011465B4A0B401360594B1B683979BA7906
:10082C0001FA02F21146564A0B43136000BF98E0DE
:10083C00544B1B68BA795200032101FA02F2D243DD
:10084C001146504A0B4013604E4B1B687979BA79AC
:10085C00520001FA02F211464A4A0B4313607B79AB
:10086C00002B02D0012B18D07BE0474B1B68BA79C8
:10087C005200032101FA02F2D2431146424A0B40C4
:10088C001360414B1B683979BA79520001FA02F2B4
:10089C0011463D4A0B43136015E03C4B1B68BA797B
:1008AC00012101FA02F2D2431146384A0B4013607F
:1008BC00364B1B683979BA7901FA02F21146334A80
:1008CC000B43136000BF4CE0314B1B68BA795200EC
:1008DC00032101FA02F2D24311462D4A0B40136058
:1008EC002B4B1B687979BA79520001FA02F2114646
:1008FC00274A0B4313607B79002B02D0012B18D0B5
:10090C002FE0244B1B68BA795200032101FA02F242
:10091C00D24311461F4A0B4013601E4B1B6839799A
:10092C00BA79520001FA02F211461A4A0B431360CB
:10093C0015E0194B1B68BA79012101FA02F2D24376
:10094C001146154A0B401360134B1B683979BA7961
:10095C0001FA02F21146104A0B43136000BF00E08B
:10096C0000BF00BF0837BD4690BC70470000024076
:10097C000C00024004000240000402400C0402403F
:10098C0004040240000802400C0802400408024023
:10099C00000C02400C0C0240040C024080B483B0EA
:1009AC0000AF0346FB710B46BB7113467B71FB79A1
:1009BC00413B032B00F2A88001A252F823F000BFA8
:1009CC00DD0900082B0A0008790A0008C70A00088C
:1009DC00514B1B68BA795200032101FA02F21A40FA
:1009EC00BB795B0022FA03F3012B16D14B4B1B682E
:1009FC00BA79012101FA02F2D2431146474A0B405F
:100A0C001360464B1B687979BA7901FA02F21146E8
:100A1C00424A0B431360012378E0002376E0404BFD
:100A2C001B68BA795200032101FA02F21A40BB7911
:100A3C005B0022FA03F3012B16D13A4B1B68BA79EF
:100A4C00012101FA02F2D2431146364A0B401360DF
:100A5C00344B1B687979BA7901FA02F21146314AA2
:100A6C000B431360012351E000234FE02E4B1B6816
:100A7C00BA795200032101FA02F21A40BB795B00E9
:100A8C0022FA03F3012B16D1284B1B68BA790121EA
:100A9C0001FA02F2D2431146244A0B401360234B55
:100AAC001B687979BA7901FA02F211461F4A0B4395
:100ABC00136001232AE0002328E01D4B1B68BA7940
:100ACC005200032101FA02F21A40BB795B0022FAB0
:100ADC0003F3012B16D1174B1B68BA79012101FACC
:100AEC0002F2D2431146134A0B401360114B1B68A0
:100AFC007979BA7901FA02F211460E4A0B43136066
:100B0C00012303E0002301E000BF002318460C374B
:100B1C00BD4680BC704700BF00000240140002407C
:100B2C000004024014040240000802401408024071
:100B3C00000C0240140C02400000000000000000F9
:080B4C00010203040607080979
:0C0B54000C000020000000000024F40051
:040000050800019559
:00000001FF
